:020000040800F2
:100000001008002089010008193400083D3200085A
:1000100015340008DD0400087D3C000800000000E5
:10002000000000000000000000000000C9340008CB
:10003000510500080000000089340008213500083F
:10004000A3010008A3010008A3010008A301000800
:10005000A3010008A3010008A3010008A3010008F0
:10006000A3010008A3010008A3010008E10400089F
:10007000A3010008A3010008F1040008A30100087F
:10008000A3010008A3010008D1020008A301000891
:10009000A3010008A3010008A3010008A3010008B0
:1000A000A3010008A3010008A3010008A3010008A0
:1000B000A9350008A301000800000000A301000802
:1000C000A30100080000000000000000A3010008D8
:1000D000000000006D3C0008A301000800000000C3
:1000E000A3010008A3010008A301000800F002F822
:1000F00000F03AF80AA090E8000C82448344AAF188
:100100000107DA4501D100F02FF8AFF2090EBAE885
:100110000F0013F0010F18BFFB1A43F0010318473B
:10012000A4440000C4440000103A24BF78C878C139
:10013000FAD8520724BF30C830C144BF04680C60ED
:10014000704700000023002400250026103A28BF35
:1001500078C1FBD8520728BF30C148BF0B60704739
:100160001FB51FBD10B510BD00F077F81146FFF7A1
:10017000F7FF03F0E5FD00F095F803B4FFF7F2FF99
:1001800003BC00F09DF8000009488047094800477B
:10019000FEE7FEE7FEE7FEE7FEE7FEE7FEE7FEE737
:1001A000FEE7FEE704480549054A064B7047000094
:1001B000A5350008ED0000081002002010080020FE
:1001C000100400201004002010B5431C02E010F8B9
:1001D000011B71B18107FAD14FF0013202C88C1AAC
:1001E0008C4314EAC211F9D0C01A0A0603D0C01E0B
:1001F00010BDC01A10BD0A0401D0801E10BD090236
:10020000FCD0401E10BD4FF0000200B513469446CE
:100210009646203922BFA0E80C50A0E80C50B1F15E
:100220002001BFF4F7AF090728BFA0E80C5048BF72
:100230000CC05DF804EB890028BF40F8042B08BF10
:10024000704748BF20F8022B11F0804F18BF00F80C
:10025000012B7047704770477047754600F02CF8C7
:10026000AE4605006946534620F00700854618B0A3
:1002700020B5FFF797FFBDE820404FF000064FF094
:1002800000074FF000084FF0000BAC46ACE8C00987
:10029000ACE8C009ACE8C009ACE8C00921F007012E
:1002A0008D46704710B50446AFF300802046BDE888
:1002B0001040FFF762BF0000004870476000002058
:1002C00001491820ABBEFEE726000200704700007F
:1002D00080B540F2C400C2F2000000F05DFA80BDBB
:1002E00080B584B002900020019002980068806878
:1002F000C00770B3FFE702980168886820F001002A
:10030000886001F03DFA0190FFE70298006880687C
:10031000C007E8B1FFE701F033FA0199401A03285A
:1003200015D3FFE7029800688068C00770B1FFE747
:100330000299886A40F0100088620299C86A40F009
:100340000100C86201208DF80F0006E0FFE7DCE73E
:10035000FFE700208DF80F00FFE79DF80F0004B0C5
:1003600080BD000080B582B001900198406A009085
:100370000098806A10F0500F28D1FFE70099886A32
:1003800040F40070886200980068806800F4602083
:10039000B0F5602F16D1FFE70098007B90B9FFE71A
:1003A0000099886A20F4807088620098806AC0048E
:1003B000002806D4FFE70099886A40F001008862AF
:1003C000FFE7FFE7009800F0ABF905E00098006A4E
:1003D000016B01988847FFE702B080BD80B582B00D
:1003E00001900198406A00900099886A40F04000AE
:1003F00088620099C86A40F00400C862009800F062
:10040000C7F902B080BD000080B582B001900198AC
:10041000406A0090009800F0B7F902B080BD00007B
:1004200080B584B00290002001900090029800688E
:100430008068C007002849D1FFE7029801688868F2
:1004400040F00100886040F20000C2F20000006845
:100450004DF68361C4F21B31A0FB0110800C0090AB
:10046000FFE7009820B1FFE7009801380090F8E717
:1004700001F086F90190FFE7029800688068C007E4
:1004800018BBFFE701F07CF90199401A03281BD340
:10049000FFE7029800688068C007A0B9FFE70299EB
:1004A000886A40F0100088620299C86A40F0010032
:1004B000C862FFE70299002081F82400FFE70120CD
:1004C0008DF80F0006E0FFE7D6E7FFE700208DF884
:1004D0000F00FFE79DF80F0004B080BDFFE7FEE7C7
:1004E00080B540F2F400C2F2000000F077FD80BD5C
:1004F00080B540F23810C2F2000000F06FFD80BD00
:1005000084B003900291019200930398C16B026C36
:10051000012090404860009803990968486003985A
:100520004068102809D1FFE701980399096888609D
:10053000029803990968C86008E00298039909685D
:100540008860019803990968C860FFE704B07047A4
:100550007047000081B0EFF3108072B60090FFE7A3
:10056000FEE7000081B0009001B0704785B00390B5
:10057000029100208DF807000090FFE7039890F8A3
:100580002400012804D1FFE702208DF81300C3E006
:100590000399012081F82400FFE7FFE702984068F3
:1005A000062812D8FFE703980068406B029A11688A
:1005B000526802EB8202053A1F2393409843914010
:1005C000084303990968486329E0029840680C28A9
:1005D00012D8FFE703980068006B029A116852680E
:1005E00002EB8202233A1F23934098439140084331
:1005F00003990968086311E003980068C06A029AC9
:100600001168526802EB8202413A1F2393409843DB
:100610009140084303990968C862FFE7FFE7029821
:1006200000680A2812D3FFE703980068C06802999F
:100630000A68896802EB42021E3A072393409843F6
:100640009140084303990968C86010E00398006866
:10065000006902990A68896802EB42020723934005
:10066000984391400843039909680861FFE702989D
:100670000068102805D0FFE702980068112840D1D3
:10068000FFE70398006842F20041C4F2010188428A
:100690002DD1FFE70398006880680002002825D468
:1006A000FFE703980168886840F4000088600298BA
:1006B0000068102819D1FFE740F20000C2F20000E4
:1006C00000684DF68361C4F21B31A0FB0110800C61
:1006D00000EB800040000090FFE7009820B1FFE7AA
:1006E000009801380090F8E7FFE7FFE708E003997A
:1006F000886A40F02000886201208DF80700FFE73B
:10070000FFE7FFE70399002081F82400FFE79DF849
:1007100007008DF81300FFE79DF8130005B0704740
:1007200080B584B0039040F2C000C2F200000068BF
:1007300003F0D4FE03F07CFE4FF0663246F26663AF
:10074000C4F20A0303F076FD002201924FF6006323
:10075000C4F2AF0303F060FB03F020FB02900298A9
:1007600003F066FE019A0023C4F2040303F0A7FE1F
:1007700040B9FFE740F60000C4F20100082100F094
:10078000D3FFFFE704B080BD81B0009001B0704797
:1007900081B0009001B0704780B584B00390039899
:1007A00000680068029003980068406801909DF816
:1007B00004008006002841D5FFE79DF80800800767
:1007C00000283AD5FFE70398806AC006002806D4BF
:1007D000FFE70399886A40F400708862FFE7039896
:1007E0000068806800F46020B0F5602F1CD1FFE73E
:1007F0000398007BC0B9FFE703980168486820F0C0
:10080000200048600399886A20F480708862039809
:10081000806AC004002806D4FFE70399886A40F084
:1008200001008862FFE7FFE70398FFF779FF03986D
:1008300001686FF012000860FFE7FFE79DF8040011
:100840000006002851D5FFE79DF808004007002862
:100850004AD5FFE70398806AC006002806D4FFE760
:100860000399886A40F400508862FFE703980068A3
:10087000806800F4E040B0F5E04F14D0FFE7039843
:10088000006840684005002825D4FFE70398006809
:10089000806800F46020B0F5602F1CD1FFE703985A
:1008A000007BC0B9FFE703980168486820F080002A
:1008B00048600399886A20F4805088620398806AAF
:1008C000C005002806D4FFE70399886A40F00100BC
:1008D0008862FFE7FFE70398FFF744FE039801688B
:1008E0006FF00C000860FFE7FFE79DF8040040068A
:1008F000002814D5FFE79DF80800C00770B1FFE796
:100900000399886A40F480308862039800F014F9F3
:10091000039801686FF001000860FFE7FFE704B08B
:1009200080BD000080B588B0069000208DF81700CB
:10093000049003900290069820B9FFE701208DF8FB
:100940001F00F4E00698806830B1FFE70698007D4C
:1009500008B1FFE7FFE7FFE70698806A50B9FFE7B5
:1009600006990020C862069981F82400069800F0D4
:10097000E7F8FFE70698FFF7B3FC8DF81700069835
:10098000806AC006002800F1C480FFE79DF81700C8
:10099000002840F0BE80FFE70698806A40F0020021
:1009A00020F488500699886206994868CA691043FD
:1009B000097B40EA41010398084303900698816847
:1009C0000120B1F5807F019008D0FFE7069880688C
:1009D0000138B0FA80F040090190FFE701990498CE
:1009E000CA0740F48071002A18BF08460490069890
:1009F000007D01281ED1FFE70698007B70B9FFE754
:100A0000069881694EF20000CFF6FF7000EB41308E
:100A10000499084340F4006004900AE00699886A4B
:100A200040F0200088620699C86A40F00100C86260
:100A3000FFE7FFE706980068406820F469400499E2
:100A400008430699096848600698006880684FF274
:100A5000FD71CFF6E17108400399084306990968D2
:100A60008860069881680120B1F5807F009008D0E9
:100A7000FFE7069880680138B0FA80F040090090DE
:100A8000FFE7009800F00100002818BF4FF48070C5
:100A9000B0F5807F09D1FFE7069801690020CFF605
:100AA000F07000EB01500290FFE706980068C06A02
:100AB00020F470000299084306990968C8620698F4
:100AC0000068806840F6FE61CFF61F710840039908
:100AD00088420CD1FFE706990020C8620698806A18
:100AE00040F0010020F002000699886210E00698AC
:100AF000806A40F0100020F0020006998862069992
:100B0000C86A40F00100C86201208DF81700FFE7B5
:100B100008E00699886A40F01000886201208DF88C
:100B20001700FFE79DF817008DF81F00FFE79DF8FD
:100B30001F0008B080BD000081B0009001B0704778
:100B400080B58AB009900020089007900690059023
:100B50000998006842F20041C4F2010188425BD169
:100B6000FFE7FFE741F21800C4F20200016841F418
:100B700000710160006800F4007004900498FFE7C1
:100B8000FFE741F21800C4F20200016841F00401DD
:100B90000160006800F0040003900398FFE7022062
:100BA00005900320069040F60000C4F2010005A95C
:100BB00000F038FC40F2F400C2F20000029008217C
:100BC000C4F2020101600021416081608022C260A4
:100BD0004FF4807202614FF4806242612022826190
:100BE000C16100F03FFB18B1FFE7FFF7B3FCFFE77F
:100BF000FFE7099840F2F401C2F20001016209988E
:100C00004862FFE7122001900022114600F044FEE6
:100C1000019800F037FEFFE70AB080BD80B586B0CE
:100C200004900391029200208DF807000498006858
:100C300042F20041C4F20101884209D0FFE7049862
:100C4000006842F60001C4F20101884209D1FFE7C1
:100C500042F20440C4F20100006800F470200090E9
:100C600002E000200090FFE70098002840F0DC80C0
:100C7000FFE7FFE7049890F82400012804D1FFE77C
:100C800002208DF81700D8E00499012081F8240093
:100C9000FFE7FFE70498FFF7C3FB8DF807009DF817
:100CA0000700002840F0B880FFE70498806A40F40D
:100CB000807040F601618843049988620498006856
:100CC00042F60001C4F20101884209D1FFE742F275
:100CD0000440C4F20100006810F4702F03D018E043
:100CE0000020B0B9FFE70499886A20F48010886278
:100CF0000498006840684005002809D5FFE704987B
:100D0000806A40F4805020F4005004998862FFE724
:100D10002CE00499886A40F4801088620498006886
:100D200042F20041C4F20101884209D0FFE7049871
:100D3000006842F60001C4F20101884209D1FFE7D0
:100D400042F20440C4F2010000684005002803D4C8
:100D50000BE0012048B9FFE70498806A40F4805016
:100D600020F4005004998862FFE7FFE70498806A46
:100D7000C004002806D5FFE70499C86A20F00600E1
:100D8000C86203E004990020C862FFE7FFE7049906
:100D9000002081F82400FFE70498016A40F26530E2
:100DA000C0F6000088620498016A40F20940C0F66B
:100DB0000000C8620498016A40F2DD30C0F600000D
:100DC0000863049801686FF00200086004980168E5
:100DD000886840F48070886004980168006A4C312B
:100DE000039A029B00F096FA04980068806800F469
:100DF0006020B0F5602F07D1FFE70498016888688C
:100E000040F4A000886006E004980168886840F417
:100E100080108860FFE706E0FFE70499002081F872
:100E20002400FFE7FFE703E001208DF80700FFE75C
:100E30009DF807008DF81700FFE79DF8170006B032
:100E400080BD000083B0019000208DF80300019860
:100E500090F8210002280DD0FFE701990420886353
:100E6000FFE70199002081F82000FFE701208DF8BD
:100E70000B0021E001980168086820F00E0008606E
:100E800001980168086820F0010008600198C16BB2
:100E9000026C012090404860FFE70199012081F831
:100EA0002100FFE70199002081F82000FFE79DF86D
:100EB00003008DF80B00FFE79DF80B0003B07047AF
:100EC00080B588B0079000208DF81B00079890F837
:100ED0002100022807D0FFE707990420886301203A
:100EE0008DF81B0076E007980168086820F00E0076
:100EF000086007980168086820F0010008600798FA
:100F000000680821C4F20201884203D1FFE70120F2
:100F1000059047E0079800681C21C4F2020188424E
:100F200003D1FFE71020049039E0079800683021D2
:100F3000C4F20201884204D1FFE74FF480700390AD
:100F40002AE0079800684421C4F20201884204D1D3
:100F5000FFE74FF4805002901BE00798006858218B
:100F6000C4F20201884204D1FFE74FF480300190BF
:100F70000CE0079801686C22C4F202024FF0807006
:100F8000914208BF4FF480100190FFE70198029052
:100F9000FFE702980390FFE703980490FFE70498A7
:100FA0000590FFE705980421C4F202010860079943
:100FB000012081F82100FFE70799002081F8200037
:100FC000FFE70798406B20B1FFE70798416B884720
:100FD000FFE7FFE79DF81B0008B080BD80B58EB02D
:100FE0000D900D98C06B00680C900D98006800681B
:100FF0000B900C980D99096CC8404007002875D5D6
:10100000FFE79DF82C00400700286FD5FFE70D98FB
:10101000006800688006002807D4FFE70D98016883
:10102000086820F004000860FFE70D9800680821B8
:10103000C4F20201884203D1FFE704200A9047E08E
:101040000D9800681C21C4F20201884203D1FFE719
:101050004020099039E00D9800683021C4F2020167
:10106000884204D1FFE74FF4806008902AE00D9891
:1010700000684421C4F20201884204D1FFE74FF422
:10108000804007901BE00D9800685821C4F20201CF
:10109000884204D1FFE74FF4802006900CE00D98C1
:1010A00001686C22C4F202024FF08060914208BFD6
:1010B0004FF480000690FFE706980790FFE7079837
:1010C0000890FFE708980990FFE709980A90FFE762
:1010D0000A980421C4F2020108600D98C06A20B188
:1010E000FFE70D98C16A8847FFE7B8E00C980D99B3
:1010F000096CC8408007002840F18080FFE79DF818
:101100002C008007002879D5FFE70D98006800685B
:10111000800600280BD4FFE70D980168086820F0CE
:101120000A0008600D99012081F82100FFE70D9861
:1011300000680821C4F20201884203D1FFE70220BF
:10114000059047E00D9800681C21C4F20201884216
:1011500003D1FFE72020049039E00D98006830218A
:10116000C4F20201884204D1FFE74FF400700390FB
:101170002AE00D9800684421C4F20201884204D19B
:10118000FFE74FF4005002901BE00D9800685821D3
:10119000C4F20201884204D1FFE74FF4003001900D
:1011A0000CE00D9801686C22C4F202024FF000704E
:1011B000914208BF4FF400100190FFE701980290A0
:1011C000FFE702980390FFE703980490FFE7049875
:1011D0000590FFE705980421C4F202010860FFE7CB
:1011E0000D99002081F82000FFE70D98806A20B15A
:1011F000FFE70D98816A8847FFE72FE00C980D996B
:10120000096CC8400007002827D5FFE79DF82C008F
:101210000007002821D5FFE70D980168086820F035
:101220000E0008600D98C26B016C012000FA01F1FC
:1012300051600D9988630D9981F82100FFE70D99A0
:10124000002081F82000FFE70D98006B20B1FFE738
:101250000D98016B8847FFE7FFE7FFE7FFE70EB058
:1012600080BD000083B0019000200090019820B95B
:10127000FFE701208DF80B0047E0019908684FF661
:10128000F872CBF6FD7210444CF6CD42CCF6CC424F
:10129000A0FB02026FF0030000EA920008640199CB
:1012A0000020C4F20200C8630199022081F82100E5
:1012B0000198006800680090009843F6F071884338
:1012C000009001994868D1F808C0CB680A6940EAE3
:1012D0000C00184310434A6910438A691043C969D6
:1012E000014300980843009000980199096808603C
:1012F000019900208863019A012182F82110019947
:1013000081F820008DF80B00FFE79DF80B0003B07B
:101310007047000080B586B004900391029201935B
:1013200000208DF80300FFE7049890F820000128C2
:1013300004D1FFE702208DF817004CE0049901204A
:1013400081F82000FFE7FFE7049890F821000128CA
:1013500032D1FFE70499022081F82100049900208E
:10136000886304980168086820F001000860049808
:101370000399029A019BFFF7C3F80498C06A38B139
:10138000FFE704980168086840F00E0008600CE070
:1013900004980168086820F0040008600498016857
:1013A000086840F00A000860FFE7049801680868D0
:1013B00040F00100086009E0FFE70499002081F88F
:1013C0002000FFE702208DF80300FFE79DF80300EF
:1013D0008DF81700FFE79DF8170006B080BD0000EC
:1013E00080B584B0039000F0CBF90290039801908F
:1013F0000198013048B1FFE740F25400C2F200000A
:101400000178019808440190FFE7FFE700F0B8F980
:101410000299401A0199884201D2FFE7F6E704B029
:1014200080BD00008FB00E900D9100200C900890B0
:10143000FFE70D9800680C99C840002800F0718102
:10144000FFE70C99012088400B900D9800680B99DC
:1014500008400A900A980B99884240F05E81FFE7A5
:101460000D9840680490002851D0FFE704980128A7
:101470003AD0FFE7049802283FD0FFE704980328FA
:101480005FD0FFE70498112832D0FFE704981228B4
:1014900038D0FFE704980021C1F21101884236D00C
:1014A000FFE704980021C1F2120188422FD0FFE724
:1014B00004980021C1F22101884228D0FFE7049856
:1014C0000021C1F22201884221D0FFE704980021C7
:1014D000C1F2310188421AD0FFE704980021C1F21D
:1014E0003201884213D02FE00D98C06808902CE09C
:1014F0000D98C0680430089027E00D98C068083047
:10150000089022E00D98C0680C3008901DE00D98FE
:10151000806818B9FFE70420089011E00D988068F2
:10152000012806D1FFE7082008900B980E99086162
:1015300005E0082008900B980E994861FFE7FFE747
:1015400003E00020089000E0FFE70A98FF2803D896
:10155000FFE70E98039003E00E9804300390FFE736
:10156000039807900A98FF2804D8FFE70C9880009A
:10157000029006E00C996FF01F0000EB81000290D2
:10158000FFE70298069007980068069A0F2191409D
:101590008843089991400843079908600D98C079DD
:1015A000C006002840F1B880FFE7FFE741F21800CD
:1015B000C4F20200016841F001010160006800F01E
:1015C000010005900598FFE70C9820F00300082122
:1015D000C4F20101405809900C9800F0030081000A
:1015E0000F2000FA01F10998884309900E9840F6FF
:1015F0000001C4F20101884203D1FFE700200190FD
:1016000018E00E9840F60041C4F20101884203D16F
:10161000FFE7012000900AE00E9941F20002C4F2B7
:1016200001020320914208BF02200090FFE70098CA
:101630000190FFE701980C9901F00301890000FA7D
:1016400001F109980843099009980C9921F00301C8
:101650000822C4F2010288500D988079C006002843
:1016600009D5FFE70A9A40F20841C4F2010108686F
:101670001043086008E00A9A40F20841C4F20101F0
:10168000086890430860FFE70D988079800600287D
:1016900009D5FFE70A9A40F20C41C4F2010108683B
:1016A0001043086008E00A9A40F20C41C4F20101BC
:1016B000086890430860FFE70D988079800700284C
:1016C00009D5FFE70A9A40F20441C4F20101086813
:1016D0001043086008E00A9A40F20441C4F2010194
:1016E000086890430860FFE70D988079C00748B10B
:1016F000FFE70A9A40F20041C4F201010868104372
:10170000086008E00A9A40F20041C4F2010108684A
:1017100090430860FFE7FFE7FFE70C9801300C906B
:1017200087E60FB07047000083B00290ADF8061056
:101730000298C0680090009ABDF8060002EA000115
:10174000904340EA01400299086103B070470000ED
:1017500082B00190ADF802108DF801209DF80100D3
:1017600028B1FFE7BDF802000199086105E0BDF866
:101770000200000401990861FFE702B07047000011
:1017800040F20C20C2F200000068704740F25400A2
:10179000C2F20000027840F20C21C2F20001086897
:1017A000104408607047000080B542F20001C4F2A6
:1017B0000201086840F010000860032000F086F87D
:1017C0000F2000F005F800F03BF8002080BD00007D
:1017D00080B582B0009040F20000C2F200000068C4
:1017E00040F25401C2F200010A784FF47A71B1FB61
:1017F000F2F1B0FBF1F000F047FE20B1FFE701206D
:101800008DF8070018E000980F280DD8FFE7009921
:101810004FF0FF30002200F03FF8009840F25801EE
:10182000C2F20001086003E001208DF8070003E028
:1018300000208DF80700FFE79DF8070002B080BD8B
:1018400082B0FFE741F21800C4F20200016841F0E3
:1018500001010160006800F0010001900198FFE7BC
:10186000FFE741F21C00C4F20200016841F0805120
:101870000160006800F0805000900098FFE702B01F
:101880007047000080B582B08DF807009DF9070011
:1018900002F0F6F902B080BD80B586B08DF8170071
:1018A000049103920020029002F002FA02909DF946
:1018B0001700019002980499039A01F0AFFD0146C8
:1018C000019802F0FDF906B080BD000080B582B03D
:1018D0000190019802F016FA02B080BD80B586B082
:1018E000049000200390029004980078C00700281C
:1018F00000F0AC80FFE700208DF8070041F21C00EB
:10190000C4F202000068C000002813D4FFE7FFE71C
:1019100041F21C00C4F20200016841F080510160F4
:10192000006800F0805000900098FFE701208DF8DB
:101930000700FFE747F20000C4F200000068C0059E
:10194000002822D4FFE747F20001C4F20001086832
:1019500040F480700860FFF713FF0390FFE747F241
:101960000000C4F200000068C00500280CD4FFE7A6
:10197000FFF706FF0399401A652804D3FFE7032009
:101980008DF817008AE0EAE7FFE741F22000C4F291
:101990000200006800F4407002900298E0B3FFE794
:1019A00002980499496801F44071884234D0FFE7F5
:1019B00041F22001C4F20201086820F44070029054
:1019C00040F24042C4F24222012010600020106028
:1019D000029808609DF80800C007E0B1FFE7FFF734
:1019E000CFFE0390FFE741F22000C4F2020000683E
:1019F000800700280ED4FFE7FFF7C2FE0399401AC4
:101A000041F28931884204D3FFE703208DF81700A3
:101A100044E0E8E7FFE7FFE741F22001C4F20201FA
:101A2000086820F44070049A5268104308609DF8DA
:101A30000700012809D1FFE741F21C01C4F20201AD
:101A4000086820F080500860FFE7FFE704980078FE
:101A5000800700280CD5FFE741F20401C4F202011F
:101A6000086820F44040049A926810430860FFE739
:101A700004980078C00600280CD5FFE741F2040165
:101A8000C4F20201086820F48000049AD26810436E
:101A90000860FFE700208DF81700FFE79DF81700AA
:101AA00006B080BD80B584B002900191029820B943
:101AB000FFE701208DF80F001BE1019842F20001C1
:101AC000C4F20201096801F00701884216D9FFE754
:101AD00042F20000C4F20200016821F00701019AFD
:101AE00011430160006800F007000199884204D0AA
:101AF000FFE701208DF80F00FBE0FFE70298007878
:101B0000800700282AD5FFE70298007840070028C0
:101B100009D5FFE741F20401C4F20201086840F46C
:101B2000E0600860FFE7029800780007002809D508
:101B3000FFE741F20401C4F20201086840F460507A
:101B40000860FFE741F20401C4F20201086820F0D6
:101B5000F000029A926810430860FFE7029800784C
:101B6000C007002860D0FFE70298406801280ED126
:101B7000FFE741F20000C4F2020000688003002881
:101B800004D4FFE701208DF80F00B2E021E00298B5
:101B9000406802280ED1FFE741F20000C4F20200C3
:101BA00000688001002804D4FFE701208DF80F00B1
:101BB0009FE00DE041F20000C4F2020000688007DF
:101BC000002804D4FFE701208DF80F0091E0FFE723
:101BD000FFE741F20401C4F20201086820F00300AB
:101BE000029A526810430860FFF7CAFD0090FFE7B1
:101BF00041F20400C4F20200006800F00C000299F7
:101C00004968B0EB810F0ED0FFE7FFF7B9FD0099EF
:101C1000401A41F28931884204D3FFE703208DF84E
:101C20000F0066E0E4E7FFE7019842F20001C4F22A
:101C30000201096801F00701884216D2FFE742F26B
:101C40000000C4F20200016821F00701019A11436B
:101C50000160006800F007000199884204D0FFE7A6
:101C600001208DF80F0044E0FFE70298007840075C
:101C700000280CD5FFE741F20401C4F20201086814
:101C800020F4E060029AD26810430860FFE70298EF
:101C90000078000700280DD5FFE741F20401C4F2E7
:101CA0000201086820F46050029A126940EAC200FA
:101CB0000860FFE700F04CF841F20401C4F20201B1
:101CC0000968C9B20A0944F29851C0F60001895C5A
:101CD000C84040F20001C2F20001086040F2580022
:101CE000C2F200000068FFF773FD00208DF80F00BE
:101CF000FFE79DF80F0004B080BD000040F2000037
:101D0000C2F200000068704780B5FFF7F7FF41F2AC
:101D10000401C4F202010968C1F3022244F2A8518D
:101D2000C0F60001895CC84080BD000080B5FFF7A7
:101D3000E5FF41F20401C4F202010968C1F3C222C5
:101D400044F2A851C0F60001895CC84080BD000083
:101D500086B000200590049003900290019041F21B
:101D60000400C4F2020000680590059800F00C0021
:101D70000146009100283FD0FFE70098042804D0D6
:101D8000FFE70098082806D037E041F20020C0F2B3
:101D90007A00019037E00598C0F3834144F2B050D7
:101DA000C0F60000405C02909DF81600C007C0B16C
:101DB000FFE741F20400C4F202000068C0F34041B2
:101DC00044F2C050C0F60000405C0490029841F21A
:101DD0000021C0F27A0148430499B0FBF1F003906E
:101DE00007E0029840F60011C0F23D01484303901D
:101DF000FFE70398019006E0FFE741F20020C0F200
:101E00007A000190FFE7019806B0704780B586B070
:101E10000490049820B9FFE701208DF817002EE305
:101E200004980078C007002800F0AE80FFE741F278
:101E30000400C4F20200006800F00C00042813D073
:101E4000FFE741F20400C4F20200006800F00C0059
:101E500008281BD1FFE741F20400C4F20200006829
:101E6000C003002812D5FFE741F20000C4F20200CF
:101E700000688003002808D5FFE70498406820B96F
:101E8000FFE701208DF81700F9E27CE0FFE70498F6
:101E90004068B0F5803F09D1FFE741F20001C4F28C
:101EA0000201086840F48030086032E0049840681D
:101EB00068B9FFE741F20001C4F20201086820F4AA
:101EC00080300860086820F48020086020E00498D2
:101ED0004068B0F5A02F0DD1FFE741F20001C4F238
:101EE0000201086840F480200860086840F48030EF
:101EF00008600CE041F20001C4F20201086820F41D
:101F000080300860086820F480200860FFE7FFE761
:101F1000FFE7FFE704984068D0B1FFE7FFF730FC28
:101F20000390FFE741F20000C4F202000068800362
:101F300000280CD4FFE7FFF723FC0399401A65281B
:101F400004D3FFE703208DF8170098E2EAE719E0D1
:101F5000FFF716FC0390FFE741F20000C4F2020015
:101F60000068800300280CD5FFE7FFF709FC039900
:101F7000401A652804D3FFE703208DF817007EE29E
:101F8000EAE7FFE7FFE7FFE704980078800700280B
:101F900040F18D80FFE741F20400C4F202000068C6
:101FA00010F00C0F13D0FFE741F20400C4F202005E
:101FB000006800F00C00082829D1FFE741F2040076
:101FC000C4F202000068C003002820D4FFE741F2F9
:101FD0000000C4F2020000688007002809D5FFE76E
:101FE00004980069012804D0FFE701208DF817004C
:101FF00045E241F20001C4F20201086820F0F80055
:10200000049A526940EAC2000860FFE74EE0049873
:10201000006958B3FFE70021C4F2422101200860A3
:10202000FFF7AEFB0390FFE741F20000C4F20200AD
:102030000068800700280CD4FFE7FFF7A1FB039995
:10204000401A032804D3FFE703208DF8170016E297
:10205000EAE741F20001C4F20201086820F0F8004A
:10206000049A526940EAC20008601EE00021C4F2EE
:10207000422100200860FFF783FB0390FFE741F255
:102080000000C4F202000068800700280CD5FFE7BA
:10209000FFF776FB0399401A032804D3FFE70320D8
:1020A0008DF81700EBE1EAE7FFE7FFE7FFE70498A9
:1020B00000780007002848D5FFE70498806918B326
:1020C000FFE740F28041C4F2422101200860FFF79F
:1020D00057FB0390FFE741F22400C4F202000068BE
:1020E000800700280CD4FFE7FFF74AFB0399401A4A
:1020F000032804D3FFE703208DF81700BFE1EAE7C8
:10210000012001F0C3F91FE040F28041C4F24221F6
:1021100000200860FFF734FB0390FFE741F2240042
:10212000C4F202000068800700280CD5FFE7FFF723
:1021300027FB0399401A032804D3FFE703208DF8F7
:1021400017009CE1EAE7FFE7FFE704980078400703
:10215000002840F1D880FFE700208DF8070041F209
:102160001C00C4F202000068C000002813D4FFE77E
:10217000FFE741F21C00C4F20200016841F0805107
:102180000160006800F0805000900098FFE7012097
:102190008DF80700FFE747F20000C4F20000006876
:1021A000C005002822D4FFE747F20001C4F2000175
:1021B000086840F480700860FFF7E2FA0390FFE7D8
:1021C00047F20000C4F200000068C00500280CD4EB
:1021D000FFE7FFF7D5FA0399401A652804D3FFE714
:1021E00003208DF817004AE1EAE7FFE7FFE70498CC
:1021F000C068012809D1FFE741F22001C4F20201C1
:10220000086840F00100086031E00498C06868B9CF
:10221000FFE741F22001C4F20201086820F001004A
:102220000860086820F0040008601FE00498C06897
:1022300005280DD1FFE741F22001C4F20201086830
:1022400040F004000860086840F0010008600CE0FD
:1022500041F22001C4F20201086820F00100086088
:10226000086820F004000860FFE7FFE7FFE7FFE7EA
:102270000498C068E0B1FFE7FFF782FA0390FFE738
:1022800041F22000C4F202000068800700280ED44A
:10229000FFE7FFF775FA0399401A41F28931884246
:1022A00004D3FFE703208DF81700E8E0E8E71BE020
:1022B000FFF766FA0390FFE741F22000C4F2020044
:1022C0000068800700280ED5FFE7FFF759FA039949
:1022D000401A41F28931884204D3FFE703208DF888
:1022E0001700CCE0E8E7FFE79DF80700012809D1D7
:1022F000FFE741F21C01C4F20201086820F080509F
:102300000860FFE7FFE70498C069002800F0B38089
:10231000FFE741F20400C4F20200006800F00C0084
:10232000082800F08280FFE70498C06902285CD189
:10233000FFE76021C4F2422100200860FFF720FA85
:102340000390FFE741F20000C4F202000068800140
:1023500000280CD5FFE7FFF713FA0399401A03286A
:1023600004D3FFE703208DF8170088E0EAE704981C
:10237000006AB0F5803F0CD1FFE741F20401C4F2DE
:102380000201086820F40030049A92681043086043
:10239000FFE741F20401C4F20201086820F474105E
:1023A000049B1A6A5B6A1A43104308606021C4F2F6
:1023B000422101200860FFF7E3F90390FFE741F2B3
:1023C0000000C4F202000068800100280CD4FFE77E
:1023D000FFF7D6F90399401A032804D3FFE7032037
:1023E0008DF817004BE0EAE71EE06021C4F24221BD
:1023F00000200860FFF7C4F90390FFE741F20000F6
:10240000C4F202000068800100280CD5FFE7FFF746
:10241000B7F90399401A032804D3FFE703208DF886
:1024200017002CE0EAE7FFE724E00498C0690128E0
:1024300004D1FFE701208DF8170020E041F20400ED
:10244000C4F2020000680290029800F480300499FF
:10245000096A884208D1FFE7029800F470100499D5
:10246000496A884204D0FFE701208DF8170006E092
:10247000FFE7FFE7FFE700208DF81700FFE79DF873
:10248000170006B080BD000080B582B001900198B1
:1024900001F01CF802B080BD81B0009001B070471F
:1024A00081B0009001B0704785B003900291FFE7C2
:1024B000039890F83C00012804D1FFE702208DF832
:1024C000130052E00399012081F83C00FFE7FFE789
:1024D0000399022081F83D0003980068406801904C
:1024E0000398006880680090019820F070000190C7
:1024F00002980168019808430190019803990968BE
:1025000048600398006842F60041C4F20101884225
:102510000FD0FFE703980068B0F1804F09D0FFE7C4
:102520000398006840F20041C4F2000188420ED1D5
:10253000FFE7009820F08000009002984168009822
:10254000084300900098039909688860FFE70399A1
:10255000012081F83D00FFE70399002081F83C004D
:10256000FFE700208DF81300FFE79DF8130005B08A
:102570007047000080B582B00090009820B9FFE756
:1025800001208DF807003FE0009890F83D0040B929
:10259000FFE70099002081F83C00009800F038F82F
:1025A000FFE70099022081F83D00009951F8040BE3
:1025B00001F002F80099012081F84600FFE7009938
:1025C000012081F83E00009981F83F00009981F8D0
:1025D0004000009981F84100FFE7FFE700990120E2
:1025E00081F84200009981F84300009981F8440085
:1025F000009981F84500FFE70099012081F83D002E
:1026000000208DF80700FFE79DF8070002B080BDAD
:1026100080B584B0039003980068B0F1804F19D161
:10262000FFE7FFE741F21C00C4F20200016841F03D
:1026300001010160006800F0010002900298FFE7CC
:102640001C20019000221146FFF726F90198FFF7A0
:1026500019F9FFE704B080BD83B00190019890F8AC
:102660003D00012804D0FFE701208DF80B003EE07B
:102670000199022081F83D0001980168C86840F086
:102680000100C8600198006842F60041C4F20101EF
:1026900088420FD0FFE701980068B0F1804F09D061
:1026A000FFE70198006840F20041C4F2000188424F
:1026B00012D1FFE701980068806800F007000090E1
:1026C0000098062807D0FFE701980168086840F0E5
:1026D00001000860FFE706E001980168086840F023
:1026E00001000860FFE700208DF80B00FFE79DF870
:1026F0000B0003B07047000080B586B004900391D2
:1027000000208DF80B00FFE7049890F83C000128AA
:1027100004D1FFE702208DF81700ABE004990120F7
:1027200081F83C00FFE7FFE70499022081F83D00B3
:102730000498006880680190019820F0770001906B
:10274000019820F47F4001900198049909688860FD
:10275000039800680090002872D0FFE700981028C6
:102760006ED0FFE7009820286AD0FFE70098302855
:1027700066D0FFE70098402855D0FFE70098502822
:1027800037D0FFE70098602840D0FFE70098702816
:102790000BD0FFE70098B0F5805F05D0FFE7009809
:1027A000B0F5005F16D052E055E004980068039B36
:1027B0005A689968DB6800F067FF049800688068D1
:1027C0000190019840F07700019001980499096800
:1027D000886040E004980068039B5A689968DB6849
:1027E00000F052FF04980168886840F480408860D7
:1027F00031E004980068039A5168D26800F074FFD1
:1028000004980068502100F059FF24E00498006803
:10281000039A5168D26800F08FFF04980068602125
:1028200000F04CFF17E004980068039A5168D268E2
:1028300000F05AFF04980068402100F03FFF0AE0D2
:10284000049800680399096800F038FF03E001204C
:102850008DF80B00FFE70499012081F83D00FFE7A8
:102860000499002081F83C00FFE79DF80B008DF8EB
:102870001700FFE79DF8170006B080BD81B00090FB
:1028800001B0704780B582B001900198006800697E
:1028900000F002010020B0EB510F28D0FFE70198B3
:1028A0000068C06800F002010020B0EB510F1DD09D
:1028B000FFE7019801686FF00200086101990120AB
:1028C0000877019800688069800720B1FFE70198C8
:1028D000FFF7D4FF06E0019800F012F9019800F02C
:1028E00013F9FFE7019900200877FFE7FFE7019858
:1028F0000068006900F004010020B0EB910F29D0BE
:10290000FFE701980068C06800F004010020B0EB08
:10291000910F1ED0FFE7019801686FF00400086175
:1029200001990220087701980068806910F4407FBF
:1029300004D0FFE70198FFF7A1FF06E0019800F03F
:10294000DFF8019800F0E0F8FFE701990020087730
:10295000FFE7FFE701980068006900F00801002028
:10296000B0EBD10F28D0FFE701980068C06800F0F5
:1029700008010020B0EBD10F1DD0FFE701980168DE
:102980006FF0080008610199042008770198006839
:10299000C069800720B1FFE70198FFF76FFF06E0ED
:1029A000019800F0ADF8019800F0AEF8FFE701994A
:1029B00000200877FFE7FFE701980068006900F052
:1029C00010010020B0EB111F29D0FFE7019800682B
:1029D000C06800F010010020B0EB111F1ED0FFE70F
:1029E000019801686FF010000861019908200877CC
:1029F00001980068C06910F4407F04D0FFE7019897
:102A0000FFF73CFF06E0019800F07AF8019800F02B
:102A10007BF8FFE7019900200877FFE7FFE70198BF
:102A200000680069C00780B1FFE701980068C068CE
:102A3000C00748B1FFE7019801686FF00100086125
:102A4000019800F065F8FFE7FFE70198006800696A
:102A5000C1B20020B0EBD11F13D0FFE7019800688E
:102A6000C068C1B20020B0EBD11F09D0FFE70198C8
:102A700001686FF0800008610198FFF70DFDFFE726
:102A8000FFE701980068006900F040010020B0EB0A
:102A9000911F14D0FFE701980068C06800F0400162
:102AA0000020B0EB911F09D0FFE7019801686FF09B
:102AB00040000861019800F047F8FFE7FFE7019840
:102AC0000068006900F020010020B0EB511F14D015
:102AD000FFE701980068C06800F020010020B0EB1B
:102AE000511F09D0FFE7019801686FF020000861CD
:102AF0000198FFF7D5FCFFE7FFE702B080BD0000BB
:102B000081B0009001B0704781B0009001B0704773
:102B100080B582B001900198006840F27C11C2F249
:102B20000001096888420DD1FFE740F2C000C2F2FF
:102B30000000016840F2C400C2F200000122FEF76A
:102B40006DF8FFE702B080BD81B0009001B0704722
:102B500082B00190ADF8021002B0704781B00090D1
:102B600001B0704780B592B011901198006800686C
:102B7000109011980068C0680F9011980068406923
:102B80000E9000200D900C90109800F00F000D900A
:102B90000D9888B9FFE79DF84000800600280AD507
:102BA000FFE79DF83C008006002804D5FFE7119858
:102BB00000F0FEFEE9E1FFE70D98002800F0C2807A
:102BC000FFE79DF83800C00738B9FFE7BDF83C00C3
:102BD00010F4907F00F0B680FFE79DF84000C0073A
:102BE00058B1FFE79DF83D00C00730B1FFE71199EC
:102BF000486C40F001004864FFE79DF84000400742
:102C000000280BD5FFE79DF83800C00730B1FFE77B
:102C10001199486C40F002004864FFE79DF84000BD
:102C2000800700280BD5FFE79DF83800C00730B1BA
:102C3000FFE71199486C40F004004864FFE79DF8F5
:102C400040000007002811D5FFE79DF83C008006F2
:102C5000002805D4FFE79DF83800C00730B1FFE732
:102C60001199486C40F008004864FFE71198406CE7
:102C7000002866D0FFE79DF84000800600280AD5AE
:102C8000FFE79DF83C008006002804D5FFE7119877
:102C900000F08EFEFFE7119800684069C0F38010D5
:102CA0000C901198406C0007002804D4FFE70C98A2
:102CB00000283ED0FFE7119800F000FE1198006850
:102CC0004069400600282FD5FFE7FFE7FFE711988E
:102CD000006850E8050F20F040000B90FFE70B99CB
:102CE0001198026842E805100028F0D1FFE7FFE7DD
:102CF0001198C06B98B1FFE71198C16B43F28D70CA
:102D0000C0F6000048631198C06BFEF7D9F828B1EF
:102D1000FFE71198C06B416B8847FFE703E011980C
:102D2000FFF71CFFFFE703E01198FFF717FFFFE72E
:102D300006E01198FFF712FF119900204864FFE7A1
:102D4000FFE722E11198006B012840F0FE80FFE7C9
:102D50009DF84000C006002840F1F780FFE79DF88D
:102D60003C00C006002840F1F080FFE7FFE70020AC
:102D70000A901198006800680A90119800684068ED
:102D80000A900A98FFE711980068406940060028F9
:102D900040F18180FFE71198C06B00684068ADF892
:102DA0002600BDF82600002874D0FFE7BDF82600F5
:102DB0001199898D88426DDAFFE7BDF826001199D7
:102DC000C8851198C06B8069202858D0FFE7FFE7BD
:102DD000FFE71198006850E8030F20F48070089016
:102DE000FFE708991198026842E803100028F0D123
:102DF000FFE7FFE7FFE7FFE71198006850E8050FDE
:102E000020F001000790FFE707991198026842E857
:102E100005100028F0D1FFE7FFE7FFE7FFE7119873
:102E2000006850E8050F20F040000690FFE7069983
:102E30001198026842E805100028F0D1FFE7FFE78B
:102E40001199202081F84200119900200863FFE7C2
:102E5000FFE71198006850E8030F20F0100005907C
:102E6000FFE705991198026842E803100028F0D1A5
:102E7000FFE7FFE71198C06BFDF7E4FFFFE711994B
:102E8000022048631198818DC28D891A89B2FFF79B
:102E90005FFEFFE779E01199888DC98D401AADF882
:102EA00012001198C08D00284ED0FFE7BDF8120027
:102EB000002849D0FFE7FFE7FFE71198006850E8D6
:102EC000030F20F490700390FFE7039911980268B4
:102ED00042E803100028F0D1FFE7FFE7FFE7FFE734
:102EE0001198006850E8050F20F001000290FFE7FC
:102EF00002991198026842E805100028F0D1FFE716
:102F0000FFE71199202081F8420011990020086301
:102F1000FFE7FFE71198006850E8030F20F010006A
:102F20000190FFE701991198026842E80310002818
:102F3000F0D1FFE7FFE71199022048631198BDF82F
:102F40001210FFF705FEFFE71FE09DF840000006A6
:102F500000280AD5FFE79DF83C000006002804D5AC
:102F6000FFE7119800F038FE0FE09DF840004006A2
:102F700000280AD5FFE79DF83C004006002804D54C
:102F8000FFE7119800F0E4FCFFE712B080BD0000FD
:102F900080B582B00090009820B9FFE701208DF83D
:102FA000070040E00098806908B1FFE700E0FFE714
:102FB000009890F8410040B9FFE70099002081F89F
:102FC0004000009800F034F8FFE70099242081F8D1
:102FD000410000980168C86820F40050C86000985B
:102FE00000F09CFD00980168086920F49040086199
:102FF00000980168486920F02A004861009801683B
:10300000C86840F40050C860009900204864009AE5
:10301000202182F84110009A82F8421000994863FA
:103020008DF80700FFE79DF8070002B080BD0000A3
:1030300080B58CB00B9000200A9009900890079002
:103040000B98006843F60001C4F20101884267D181
:10305000FFE7FFE741F21800C4F20200016841F403
:1030600080410160006800F4804006900698FFE708
:10307000FFE741F21800C4F20200016841F00401C8
:103080000160006800F0040005900598FFE74FF428
:10309000007007900220089003200A9040F600007C
:1030A000C4F20100019007A90291FEF7BBF9019853
:1030B00002994FF4806207920022039208920992CB
:1030C000FEF7B0F9039940F23810C2F20000049004
:1030D0004422C4F202020260102242608160802217
:1030E000C260016141618161C161FEF7BBF818B145
:1030F000FFE7FDF72FFAFFE7FFE70B9840F23811E3
:10310000C2F2000181630B984862FFE7252000901E
:1031100000221146FEF7C0FB0098FEF7B3FBFFE765
:103120000CB080BD81B0009001B0704780B586B012
:1031300004900391ADF80A20049890F841002028EB
:103140005DD1FFE7039820B1FFE7BDF80A0020B981
:10315000FFE701208DF8170055E0039804990862F5
:10316000BDF80A0004998884BDF80A000499C8844F
:10317000049900204864049A212182F8411004999E
:103180008A6B43F62901C0F60001916204998A6BAB
:1031900043F6A501C0F60001D16204998A6B43F29F
:1031A000AD71C0F6000111630499896B486303A8EF
:1031B000019004980268806B019909680432BDF897
:1031C0000A30FEF7A7F8049801686FF04000086025
:1031D000FFE7FFE70498006850E8050F40F0800023
:1031E0000090FFE700990498026842E80510002863
:1031F000F0D1FFE7FFE700208DF8170003E0022081
:103200008DF81700FFE79DF8170006B080BD00009D
:1032100082B00190FFE700200090019800680068EC
:10322000009001980068406800900098FFE702B0A5
:103230007047000081B0009001B07047FFE7FEE7E3
:1032400080B584B0002203920292019240F2C40041
:10325000C2F20000009042F20041C4F2010101609C
:1032600082600121017302754FF46023C3614260E3
:103270000161FDF757FB18B1FFE7FDF76BF9FFE7B9
:103280000120019002900020039040F2C400C2F29D
:10329000000001A9FDF76AF918B1FFE7FDF75AF937
:1032A000FFE704B080BD000080B584B0FFE741F2C5
:1032B0001400C4F20200016841F0010101600068DD
:1032C00000F0010003900398FFE70B20009000221C
:1032D00001921146FEF7E0FA0098FEF7D3FA019A40
:1032E0000E2002901146FEF7D7FA0298FEF7CAFAAE
:1032F00004B080BD80B588B000200790069005908E
:103300000490FFE741F21800C4F20200016841F0A6
:1033100004010160006800F0040003900398FFE7D7
:1033200040F60000C4F20100029008210091002242
:103330000192FEF70DFA009A019902980492012277
:10334000059206910221079104A9FEF76BF808B0D7
:1033500080BD000080B588B00021019107910691E1
:10336000059104910391029140F27C10C2F2000099
:103370004FF0804202607C22426081604FF6FF1273
:10338000C26001618161FFF7F5F818B1FFE7FDF751
:10339000E1F8FFE74FF48050049040F27C10C2F255
:1033A000000004A9FFF7A8F918B1FFE7FDF7D2F86C
:1033B000FFE700200290039040F27C10C2F2000070
:1033C00002A9FFF771F818B1FFE7FDF7C3F8FFE7AF
:1033D00008B080BD80B582B040F2C410C2F20000D7
:1033E000019043F60001C4F2010101604FF416514F
:1033F000416000218160C16001610C2242618161F4
:10340000C161FFF7C5FD18B1FFE7FDF7A3F8FFE7BE
:1034100002B080BDFFE7FEE7FFE7FEE788B0079058
:1034200006910592079800F0070004900498C0F1F7
:103430000700052803D3FFE70420019004E0049867
:10344000C0F107000190FFE7019803900498043051
:10345000062803D8FFE70020009003E00498033813
:103460000090FFE70098029006980399012202FA63
:1034700001F101390840029B984005999A40013AB0
:103480001140084308B070477047000082B00190B7
:10349000019840F20001C2F200010968C90844F62F
:1034A000D352C1F26202A1FB022189094843009074
:1034B000FFE700BFFFE70098411E00910028F8D108
:1034C000FFE702B0704700007047000080B582B08F
:1034D000009000980138B0F1807F03D3FFE701200E
:1034E000019019E0009801384EF21401CEF200016B
:1034F00008604FF0FF300F2100F0E2FB4EF21801A0
:10350000CEF20001002008604EF21002CEF200025E
:10351000072111600190FFE7019802B080BD000013
:1035200080B5FEF733F980BD80B596B00CA8019048
:103530002821FCF768FE0198002102910B910A9165
:103540000991089107910691059104910391022236
:103550000C9201221092102211921391FEF756FC48
:1035600018B1FFE7FCF7F6FFFFE70F2007900021F7
:10357000089109910A910B9107A8FEF793FA18B1E7
:10358000FFE7FCF7E7FFFFE702200390002005902C
:1035900003A8FEF7A3F918B1FFE7FCF7DBFFFFE78D
:1035A00016B080BD7047000080B540F27C10C2F2BA
:1035B0000000FFF767F980BD83B002900191029887
:1035C00000680090029842F60041C4F2010188426E
:1035D0000DD0FFE70298B0F1804F08D0FFE70298C6
:1035E00040F20041C4F2000188420AD1FFE700988E
:1035F00020F0700000900198416800980843009006
:10360000FFE7029842F60041C4F2010188420DD062
:10361000FFE70298B0F1804F08D0FFE7029840F230
:103620000041C4F2000188420AD1FFE7009820F46B
:10363000407000900198C168009808430090FFE72F
:10364000009820F080000199496908430090009893
:1036500002990860019880680299C8620198006820
:1036600002998862029842F60041C4F20101884240
:1036700005D1FFE70198006902990863FFE7029905
:103680000120486103B0704785B004900391029215
:103690000193049880680090009820F47F40009087
:1036A00003980299019A41EA0221014300980843D4
:1036B000009000980499886005B0704783B002902C
:1036C0000191029880680090009820F070000090AE
:1036D00001980099084340F0070000900098029973
:1036E000886003B07047000085B004900391029297
:1036F0000498006A00900499086A20F001000862AA
:10370000049880690190019820F0F00001900299DE
:10371000019840EA01100190009820F00A00009002
:1037200003990098084300900198049988610098D3
:103730000499086205B0704785B004900391029225
:103740000498006A00900499086A20F0100008624A
:10375000049880690190019820F4704001900299CA
:10376000019840EA01300190009820F0A0000090FC
:103770000399009840EA011000900198049988612B
:1037800000980499086205B07047000080B582B0C7
:1037900001900198406A009000990020C885009926
:1037A000C8840098FFF7DAF902B080BD80B584B014
:1037B0000390002002900398406A019001980068ED
:1037C0004069C0B2C0090290019890F841002128D8
:1037D0000AD1FFE7029838B1FFE701990020C884B9
:1037E000019800F0C9F8FFE7019800684069C0F34C
:1037F00080100290019890F8420022280AD1FFE739
:10380000029838B1FFE701990020C885019800F0BF
:1038100055F8FFE70199486C40F0100048640198A2
:10382000FFF79CF904B080BD80B584B00390039885
:10383000406A0290039800680068800600282AD435
:10384000FFE702990020C884FFE7FFE702980068BD
:1038500050E8050F20F080000190FFE701990298E1
:10386000026842E805100028F0D1FFE7FFE7FFE714
:10387000FFE70298006850E8030F40F04000009016
:10388000FFE700990298026842E803100028F0D18F
:10389000FFE7FFE703E00298FFF7BAFCFFE704B099
:1038A00080BD000080B582B001900198406A009010
:1038B0000098FFF7BFFC02B080BD000084B0039009
:1038C000FFE7FFE70398006850E8030F20F49070CB
:1038D0000290FFE702990398026842E8031000286B
:1038E000F0D1FFE7FFE7FFE7FFE70398006850E844
:1038F000050F20F001000190FFE70199039802688D
:1039000042E805100028F0D1FFE7FFE70398006BBD
:10391000012814D1FFE7FFE7FFE70398006850E8AC
:10392000030F20F010000090FFE700990398026851
:1039300042E803100028F0D1FFE7FFE7FFE7039913
:10394000202081F8420003990020086304B07047EA
:1039500080B582B0019001980168C86820F04000ED
:10396000C8600199202081F841000198FFF750FCC0
:10397000002002B080BD000082B00190FFE7FFE7A9
:103980000198006850E8030F20F0C0000090FFE7A6
:1039900000990198026842E803100028F0D1FFE77F
:1039A000FFE70199202081F8410002B07047000034
:1039B00080B586B00490049890F84200222840F028
:1039C000A480FFE704988068B0F5805F15D1FFE719
:1039D0000498006988B9FFE7002003900498806A82
:1039E00002900498006840686FF35F200299088095
:1039F0000499886A0230886225E00498806A0390FE
:103A00000020029004988068B0F5805F08D0FFE73E
:103A10000498806850B9FFE70498006930B9FFE75F
:103A20000498006840680399087007E004980068EB
:103A3000406800F07F0003990870FFE70499886AE6
:103A400001308862FFE70499C88D0138C8850004F9
:103A5000002856D1FFE704980168C86820F02000CC
:103A6000C86004980168C86820F48070C860049831
:103A70000168486920F0010048610499202081F81C
:103A800042000499002048630498006B012830D15B
:103A9000FFE7049900200863FFE7FFE70498006848
:103AA00050E8030F20F010000190FFE701990498FF
:103AB000026842E803100028F0D1FFE7FFE704980E
:103AC00000680068C00600280ED5FFE7FFE7002069
:103AD00000900498006800680090049800684068AE
:103AE00000900098FFE7FFE70498818DFFF730F81A
:103AF00003E00498FFF716FBFFE700208DF817009E
:103B000007E000208DF8170003E002208DF8170071
:103B1000FFE79DF8170006B080BD000080B584B0B7
:103B2000039003980068006920F44050039A1168DC
:103B3000D26810430861039988680A69496910438B
:103B40000843029003980068C06841F20C61884302
:103B50000299084303990968C8600398006840699E
:103B600020F44070039A11689269104348610398E9
:103B7000006843F60001C4F20101884204D1FFE766
:103B8000FEF7D4F8019003E0FEF7BEF80190FFE7DE
:103B9000019819214843039A116852689200B0FBBA
:103BA000F2FC48F21F52C5F2EB12ACFB02304309A3
:103BB000642003FB10CC322000EB0C10A0FB0202AF
:103BC000F02000EA521000EB0310C2F3431210443D
:103BD000886004B080BD000083B00190019890F827
:103BE000410021283AD1FFE701988068B0F5805F55
:103BF00013D1FFE70198006978B9FFE70198006ADF
:103C00000090009800886FF35F2001990968486070
:103C10000199086A0230086208E0019A106A411CA2
:103C200011620078019909684860FFE70199C88C22
:103C30000138C884000468B9FFE701980168C868C2
:103C400020F08000C86001980168C86840F040001A
:103C5000C860FFE700208DF80B0003E002208DF81C
:103C60000B00FFE79DF80B0003B0704780B540F2F2
:103C7000C410C2F20000FEF775FF80BDFFE7FEE74B
:103C800081B08DF803009DF9030000280ED4FFE7F2
:103C90009DF9031001F01F02012090404A094EF2E5
:103CA0000011CEF2000141F82200FFE701B0704799
:103CB0004EF60C50CEF200000068C0F302207047B0
:103CC00082B08DF8070000919DF9070000280AD402
:103CD000FFE7009800019DF907104EF20042CEF276
:103CE000000288540BE0009800019DF8071001F0D5
:103CF0000F014EF61452CEF200028854FFE702B0D4
:103D00007047000083B00290029800F00700009016
:103D10004EF60C51CEF200010868019001984FF662
:103D2000FF02104001900198009A40EA0220002210
:103D3000C0F2FA52104301900198086003B0704736
:103D400080B582B000200190FDF72EFDFFF7ECFB5F
:103D5000FFF7D0FAFFF7A8FAFFF73CFBFFF7FAFAF4
:103D6000FFF76EFA40F27C10C2F20000FEF774FC1E
:103D7000FFE740F20400C2F200000090FCF724FAD2
:103D8000009982B240F2C410C2F20000FFF7CEF9EF
:103D90004FF47A70FDF724FBEBE7000021F00042BE
:103DA00001F00043A2F16052B2F5801F28BFD2F1AA
:103DB0007F6C0BD95FEA001C43EAC20242EB5070F1
:103DC00018BF704728BF20F001007047B2F5801F70
:103DD000BCBF184670474FEA410C1CF5001F02D2C9
:103DE000084600F0D4BB70B500F0CEFA00000089A0
:103DF000FFF7F6BF4FF00040A0F580007047491074
:103E000058BFC1F140415B1058BFC3F140438B42E2
:103E1000EFF30080704700002DE9C04130B4DFF8B7
:103E2000A4C23CEA111418BF3CEA131400F0ED8060
:103E30001CEA111481EA030544EAD57418BF1CEA90
:103E4000131500F0C880A4EB050404F17F7404F599
:103E500000344FF0004545EAC12145EAC32341EA59
:103E6000505143EA52534FEAC0204FEAC2229942CE
:103E700008BF904200F09D804FEA13650FF2441690
:103E8000765D4FEA134506FB05F7C7F1807706FB21
:103E900007F74FEAD737A7FB03687642A7FB06CEA2
:103EA000C8F5803838BFA8F1010807FB08E6A6FB73
:103EB000028C4FF0000EE6FB03CEDCF1000CCEF1DD
:103EC000004E38BFAEF1010EA6FB0C584FF00007B4
:103ED000E6FB0E87A1FB08C6A0FB07CE16EB0E067D
:103EE0004FF0000545F10005E1FB076515F1E04ED7
:103EF0007EBFA4F580345FEA46066D4116F1800767
:103F000045F100054FEA172747EA05674FEA1525EF
:103F10004FEA0666A6F1DE46B6F1805F20D9384644
:103F200005EBC47124F0010C01EB0C11BCF1FE6F28
:103F300002D8F0BCBDE8008124425CBF01F5801EC0
:103F40009EEAC47F02D4F0BCBDE80081244200F1A7
:103F50003980A1F1C041F0BCBDE8004100F062BA77
:103F60004FEAD02040EA41504FEAD1214FEAD22215
:103F700042EA43524FEAD323A7FB028607FB0366BC
:103F800005FB02661EEA0E0F58BFA6EB0056B6EB05
:103F900000564FEA520E4EEAC37E18EB0E0E56EB59
:103FA000530EBCD518EB02085E417F1C55F100058D
:103FB000B5E74FF480154FF000074FF000064FF0C3
:103FC0000008ACE701F1C04101F000414FF00000F2
:103FD000F0BCBDE800810CEA131511EA0C1F00D0FB
:103FE0000CE013EA0C1F00F026804FF0000081EA7D
:103FF000030101F00041F0BCBDE80081F0BCBDE868
:10400000004181EA030100F00DBAF0BCBDE80041B7
:1040100070B500F0B9F900BF097EFC3E00F007B8AA
:104020004FF0000081EA030101F00041704781EA8E
:10403000030100F0F7B9F0BCBDE8004122494FF0A0
:1040400000007047FFFDFBF9F7F5F4F2F0EEEDEB41
:10405000E9E8E6E4E3E1E0DEDDDBDAD8D7D5D4D386
:10406000D1D0CFCDCCCBCAC8C7C6C5C4C2C1C0BFD2
:10407000BEBDBCBBBAB9B8B7B6B5B4B3B2B1B0AFD8
:10408000AEADACABAAA9A8A8A7A6A5A4A3A3A2A1BC
:10409000A09F9F9E9D9C9C9B9A9999989797969577
:1040A00095949393929191908F8F8E8E8D8C8C8B13
:1040B0008B8A89898888878786858584848383829B
:1040C000828181800000FF070000F87F51EA030C25
:1040D00017D41CF5801F58BFBCF5801F00F1068067
:1040E000994218BF704708BF9042704707D711F533
:1040F000801F58BF13F5801F19D499427047894219
:1041000070471CF5801F08D5BCF5801FF7D58B4282
:1041100018BF704708BF824270474FF4001C1CEB69
:10412000410F38BF1CEB430F01D28B42704770B573
:1041300000F02AF9922449004FF000514FF08053CB
:10414000FFF75DBE51EA030C17D41CF5801F58BF62
:10415000BCF5801F00F10680994218BF704708BF68
:104160009042704707D711F5801F58BF13F5801F85
:1041700019D499427047894270471CF5801F08D5B1
:10418000BCF5801FF7D58B4218BF704708BF82422D
:1041900070474FF4001C1CEB410F38BF1CEB430F62
:1041A00001D28B42704770B500F0EEF892244900BE
:1041B0004FF080514FF00053FFF721BE51EA030C3E
:1041C00017D41CF5801F58BFBCF5801F00F1068076
:1041D000994218BF704708BF9042704707D711F542
:1041E000801F58BF13F5801F19D499427047894228
:1041F00070471CF5801F08D5BCF5801FF7D58B4292
:1042000018BF704708BF824270474FF4001C1CEB78
:10421000410F38BF1CEB430F01D28B42704770B582
:1042200000F0B2F8922449004FF000514FF0805353
:10423000FFF7E5BD70B5DFF848C11CEA111E1EBFCF
:104240001CEA13159EEA0C0F95EA0C0F00F06F8024
:1042500081EA03044EEAD47EAE4421EA4C1123EAFB
:104260004C1341F4801143F48013AEF17F7EA1FB27
:10427000024CA0FB0365361955EB0C05A1FB034C62
:104280004CF10003A0FB021C16EB0C06654153F138
:104290000003094218BF46F0010613F4007F0BD15A
:1042A0004FEA03314FEA053041EA155140EA165012
:1042B00034036FF003020AE04FEAC3214FEAC5203E
:1042C00041EA555140EA5650F4026FF0020202EB07
:1042D0002E4201EB025585EACE710AD05FEA440C0A
:1042E00018BF24F0004450F1000041F1000120EA21
:1042F000D47040F2FE7C624500D270BDA84214BF6B
:104300004FF080444FF04044002E08BF0024BEF11F
:10431000806FA8BFA1F1C041BDE8704080F28280EB
:1043200001F1C04101F000414FF0000070470CEA7C
:1043300013159EEA0C0F18BF95EA0C0F06D081EA00
:10434000030E4FF000000EF0004170BD00F01CF8AD
:104350008900013E00F007B800F009B84FEA430CAD
:104360005FEA5C5C08D081EA030100F05BB84FEAC9
:10437000410C5FEA5C5CF6D102494FF000007047E7
:104380000000FF070000F87F0EF1020E2EF0030E72
:104390005EF8046B364205D4012A43EB030515F59C
:1043A000001F12D8012841EB010C1CF5001F0CD88E
:1043B0000ED14FEAD17C0CEB4C0C0CF1020C15F534
:1043C000001F08BF4CEBD37C04E04FF0080C01E069
:1043D0004FEAD37C0CEB4C0526FA05F606F00706EF
:1043E000B6F1040C06D20EEB860CBDE870404CF022
:1043F000010C6047DFE80CF0090B02024FF00041AE
:10440000A1F500214FF0000070BD194610460128AB
:1044100051EB010418BFD4F5001484BF002001F053
:10442000004170BD0808A0F500114FEA3101704746
:1044300043004FEAD30C4FEA3C0C43401FBF4007F8
:104440000CF1605113F0FE4F70471CF0006F03D168
:104450000CF00041002070470CF0004343EA50701C
:1044600040EACC0010B500F04CF800BF000000920C
:104470004FEA0001FFF7D6BF4FF00041A1F5002140
:104480004FF00000704710B5FFF720FE0CBF012071
:10449000002010BD10B5FFF719FE14BF0120002049
:1044A00010BD10B5FFF74EFE8CBF0120002010BDDF
:1044B00010B5FFF747FE2CBF0120002010BD10B53E
:1044C000FFF77CFE94BF0120002010BD10B5FFF760
:1044D00075FE34BF0120002010BD0000B0FA80F34B
:1044E00010FA03F2C3F19D030AD0D90501EB1220A3
:1044F000530638BF704700F1010008BF20F00100EB
:1045000070470EF1020E2EF0030E5EF8044B2442AB
:1045100004D44FEA4102B2F17F4F11D84FEA400371
:10452000B3F17F4F0CD80ED14FEAD07C0CEB4C0C82
:104530000CF1020CB2F17F4F08BF4CEBD17C04E0D0
:104540004FF0080C01E04FEAD17C0CEB4C0324FA4D
:1045500003F404F00704B4F1040C06D20EEB840C4F
:10456000BDE810404CF0010C6047DFE80CF0070894
:1045700002024FF00040A0F5800010BD0846420046
:1045800018BFD2F1807288BF00F0004010BDFF213B
:1045900041EAD050C0057047000000000000000054
:1045A00001020304060708090000000001020304D9
:1045B00002030405060708090A0B0C0D0E0F101064
:1045C00001020000E8450008000000206000000033
:1045D000280100084846000860000020B0070000DD
:1045E00044010008000000000024F40048656C6CE1
:1045F0006F20576F726C640D0A000000000000000D
:1046000000000000000000000000000000000000AA
:10461000000000000000000000000000000000009A
:10462000000000000000000000000000000000008A
:104630000000000000000000000000000100000079
:08464000100000000000000062
:04000005080000ED02
:00000001FF
